{
  "contractName": "DEX",
  "abi": [
    {
      "inputs": [
        {
          "internalType": "address",
          "name": "_twdToken",
          "type": "address"
        },
        {
          "internalType": "address",
          "name": "_usdToken",
          "type": "address"
        },
        {
          "internalType": "uint256",
          "name": "initialRt",
          "type": "uint256"
        },
        {
          "internalType": "uint256",
          "name": "initialRu",
          "type": "uint256"
        }
      ],
      "stateMutability": "nonpayable",
      "type": "constructor"
    },
    {
      "inputs": [],
      "name": "Rt",
      "outputs": [
        {
          "internalType": "uint256",
          "name": "",
          "type": "uint256"
        }
      ],
      "stateMutability": "view",
      "type": "function",
      "constant": true
    },
    {
      "inputs": [],
      "name": "Ru",
      "outputs": [
        {
          "internalType": "uint256",
          "name": "",
          "type": "uint256"
        }
      ],
      "stateMutability": "view",
      "type": "function",
      "constant": true
    },
    {
      "inputs": [],
      "name": "twdToken",
      "outputs": [
        {
          "internalType": "contract IERC20",
          "name": "",
          "type": "address"
        }
      ],
      "stateMutability": "view",
      "type": "function",
      "constant": true
    },
    {
      "inputs": [],
      "name": "usdToken",
      "outputs": [
        {
          "internalType": "contract IERC20",
          "name": "",
          "type": "address"
        }
      ],
      "stateMutability": "view",
      "type": "function",
      "constant": true
    },
    {
      "inputs": [
        {
          "internalType": "uint256",
          "name": "x",
          "type": "uint256"
        }
      ],
      "name": "tradeTWDForUSD",
      "outputs": [
        {
          "internalType": "bool",
          "name": "",
          "type": "bool"
        }
      ],
      "stateMutability": "payable",
      "type": "function",
      "payable": true
    },
    {
      "inputs": [
        {
          "internalType": "uint256",
          "name": "y",
          "type": "uint256"
        }
      ],
      "name": "tradeUSDForTWD",
      "outputs": [
        {
          "internalType": "bool",
          "name": "",
          "type": "bool"
        }
      ],
      "stateMutability": "payable",
      "type": "function",
      "payable": true
    },
    {
      "inputs": [],
      "name": "getReserves",
      "outputs": [
        {
          "internalType": "uint256",
          "name": "",
          "type": "uint256"
        },
        {
          "internalType": "uint256",
          "name": "",
          "type": "uint256"
        }
      ],
      "stateMutability": "view",
      "type": "function",
      "constant": true
    }
  ],
  "bytecode": "0x608060405234801562000010575f80fd5b5060405162000c6b38038062000c6b83398181016040528101906200003691906200016a565b835f806101000a81548173ffffffffffffffffffffffffffffffffffffffff021916908373ffffffffffffffffffffffffffffffffffffffff1602179055508260015f6101000a81548173ffffffffffffffffffffffffffffffffffffffff021916908373ffffffffffffffffffffffffffffffffffffffff160217905550816002819055508060038190555050505050620001d9565b5f80fd5b5f73ffffffffffffffffffffffffffffffffffffffff82169050919050565b5f620000fc82620000d1565b9050919050565b6200010e81620000f0565b811462000119575f80fd5b50565b5f815190506200012c8162000103565b92915050565b5f819050919050565b620001468162000132565b811462000151575f80fd5b50565b5f8151905062000164816200013b565b92915050565b5f805f8060808587031215620001855762000184620000cd565b5b5f62000194878288016200011c565b9450506020620001a7878288016200011c565b9350506040620001ba8782880162000154565b9250506060620001cd8782880162000154565b91505092959194509250565b610a8480620001e75f395ff3fe60806040526004361061006f575f3560e01c8063906aa8701161004d578063906aa870146100f857806393e2708214610122578063d07ba4141461014c578063f897a22b1461017c5761006f565b80630902f1ac1461007357806355af55121461009e57806383e7ca81146100c8575b5f80fd5b34801561007e575f80fd5b506100876101a6565b604051610095929190610675565b60405180910390f35b3480156100a9575f80fd5b506100b26101b6565b6040516100bf919061069c565b60405180910390f35b6100e260048036038101906100dd91906106e3565b6101bc565b6040516100ef9190610728565b60405180910390f35b348015610103575f80fd5b5061010c6103e5565b60405161011991906107bb565b60405180910390f35b34801561012d575f80fd5b50610136610408565b604051610143919061069c565b60405180910390f35b610166600480360381019061016191906106e3565b61040e565b6040516101739190610728565b60405180910390f35b348015610187575f80fd5b50610190610638565b60405161019d91906107bb565b60405180910390f35b5f80600254600354915091509091565b60035481565b5f60015f9054906101000a900473ffffffffffffffffffffffffffffffffffffffff1673ffffffffffffffffffffffffffffffffffffffff166323b872dd3330856040518463ffffffff1660e01b815260040161021b939291906107f4565b6020604051808303815f875af1158015610237573d5f803e3d5ffd5b505050506040513d601f19601f8201168201806040525081019061025b9190610853565b61029a576040517f08c379a0000000000000000000000000000000000000000000000000000000008152600401610291906108d8565b60405180910390fd5b5f826003546102a99190610923565b6003546002546102b99190610956565b6102c391906109c4565b6002546102d091906109f4565b90505f8054906101000a900473ffffffffffffffffffffffffffffffffffffffff1673ffffffffffffffffffffffffffffffffffffffff1663a9059cbb33836040518363ffffffff1660e01b815260040161032c929190610a27565b6020604051808303815f875af1158015610348573d5f803e3d5ffd5b505050506040513d601f19601f8201168201806040525081019061036c9190610853565b6103ab576040517f08c379a00000000000000000000000000000000000000000000000000000000081526004016103a2906108d8565b60405180910390fd5b8060025f8282546103bc91906109f4565b925050819055508260035f8282546103d49190610923565b925050819055506001915050919050565b5f8054906101000a900473ffffffffffffffffffffffffffffffffffffffff1681565b60025481565b5f805f9054906101000a900473ffffffffffffffffffffffffffffffffffffffff1673ffffffffffffffffffffffffffffffffffffffff166323b872dd3330856040518463ffffffff1660e01b815260040161046c939291906107f4565b6020604051808303815f875af1158015610488573d5f803e3d5ffd5b505050506040513d601f19601f820116820180604052508101906104ac9190610853565b6104eb576040517f08c379a00000000000000000000000000000000000000000000000000000000081526004016104e2906108d8565b60405180910390fd5b5f826002546104fa9190610923565b60035460025461050a9190610956565b61051491906109c4565b60035461052191906109f4565b905060015f9054906101000a900473ffffffffffffffffffffffffffffffffffffffff1673ffffffffffffffffffffffffffffffffffffffff1663a9059cbb33836040518363ffffffff1660e01b815260040161057f929190610a27565b6020604051808303815f875af115801561059b573d5f803e3d5ffd5b505050506040513d601f19601f820116820180604052508101906105bf9190610853565b6105fe576040517f08c379a00000000000000000000000000000000000000000000000000000000081526004016105f5906108d8565b60405180910390fd5b8260025f82825461060f9190610923565b925050819055508060035f82825461062791906109f4565b925050819055506001915050919050565b60015f9054906101000a900473ffffffffffffffffffffffffffffffffffffffff1681565b5f819050919050565b61066f8161065d565b82525050565b5f6040820190506106885f830185610666565b6106956020830184610666565b9392505050565b5f6020820190506106af5f830184610666565b92915050565b5f80fd5b6106c28161065d565b81146106cc575f80fd5b50565b5f813590506106dd816106b9565b92915050565b5f602082840312156106f8576106f76106b5565b5b5f610705848285016106cf565b91505092915050565b5f8115159050919050565b6107228161070e565b82525050565b5f60208201905061073b5f830184610719565b92915050565b5f73ffffffffffffffffffffffffffffffffffffffff82169050919050565b5f819050919050565b5f61078361077e61077984610741565b610760565b610741565b9050919050565b5f61079482610769565b9050919050565b5f6107a58261078a565b9050919050565b6107b58161079b565b82525050565b5f6020820190506107ce5f8301846107ac565b92915050565b5f6107de82610741565b9050919050565b6107ee816107d4565b82525050565b5f6060820190506108075f8301866107e5565b61081460208301856107e5565b6108216040830184610666565b949350505050565b6108328161070e565b811461083c575f80fd5b50565b5f8151905061084d81610829565b92915050565b5f60208284031215610868576108676106b5565b5b5f6108758482850161083f565b91505092915050565b5f82825260208201905092915050565b7f5472616e73666572206661696c656400000000000000000000000000000000005f82015250565b5f6108c2600f8361087e565b91506108cd8261088e565b602082019050919050565b5f6020820190508181035f8301526108ef816108b6565b9050919050565b7f4e487b71000000000000000000000000000000000000000000000000000000005f52601160045260245ffd5b5f61092d8261065d565b91506109388361065d565b92508282019050808211156109505761094f6108f6565b5b92915050565b5f6109608261065d565b915061096b8361065d565b92508282026109798161065d565b915082820484148315176109905761098f6108f6565b5b5092915050565b7f4e487b71000000000000000000000000000000000000000000000000000000005f52601260045260245ffd5b5f6109ce8261065d565b91506109d98361065d565b9250826109e9576109e8610997565b5b828204905092915050565b5f6109fe8261065d565b9150610a098361065d565b9250828203905081811115610a2157610a206108f6565b5b92915050565b5f604082019050610a3a5f8301856107e5565b610a476020830184610666565b939250505056fea2646970667358221220e361188926be060faa9cac36ad659e0a1cce5df57fc1465e7616d7612bbb5cef64736f6c63430008150033",
  "immutableReferences": {},
  "source": "// SPDX-License-Identifier: MIT\npragma solidity ^0.8.0;\n\nimport \"@openzeppelin/contracts/token/ERC20/IERC20.sol\";\n\ncontract DEX {\n    IERC20 public twdToken;\n    IERC20 public usdToken;\n    uint256 public Rt;  // Reserve for TWD\n    uint256 public Ru;  // Reserve for USD\n\n    constructor(address _twdToken, address _usdToken, uint256 initialRt, uint256 initialRu) {\n        twdToken = IERC20(_twdToken);\n        usdToken = IERC20(_usdToken);\n        Rt = initialRt;\n        Ru = initialRu;\n    }\n\n    function tradeTWDForUSD(uint256 x) public payable returns (bool) {\n        require(twdToken.transferFrom(msg.sender, address(this), x), \"Transfer failed\");\n        uint256 y = Ru - (Rt * Ru) / (Rt + x);\n        require(usdToken.transfer(msg.sender, y), \"Transfer failed\");\n        Rt += x;\n        Ru -= y;\n        return true;\n    }\n\n    function tradeUSDForTWD(uint256 y) public payable returns (bool) {\n        require(usdToken.transferFrom(msg.sender, address(this), y), \"Transfer failed\");\n        uint256 x = Rt - (Rt * Ru) / (Ru + y);\n        require(twdToken.transfer(msg.sender, x), \"Transfer failed\");\n        Rt -= x;\n        Ru += y;\n        return true;\n    }\n\n    function getReserves() public view returns (uint256, uint256) {\n        return (Rt, Ru);\n    }\n}\n",
  "sourcePath": "/Users/wen/Developer/tudex/dex/contracts/DEX.sol",
  "compiler": {
    "name": "solc",
    "version": "0.8.21+commit.d9974bed.Emscripten.clang"
  },
  "schemaVersion": "3.4.16",
  "updatedAt": "2024-05-31T12:50:14.253Z",
  "networkType": "ethereum",
  "devdoc": {
    "kind": "dev",
    "methods": {},
    "version": 1
  },
  "userdoc": {
    "kind": "user",
    "methods": {},
    "version": 1
  }
}